{
  "_format": "hh-sol-artifact-1",
  "contractName": "TokenSwap",
  "sourceName": "contracts/Swap.sol",
  "abi": [
    {
      "inputs": [],
      "stateMutability": "nonpayable",
      "type": "constructor"
    },
    {
      "inputs": [
        {
          "internalType": "address",
          "name": "owner",
          "type": "address"
        }
      ],
      "name": "OwnableInvalidOwner",
      "type": "error"
    },
    {
      "inputs": [
        {
          "internalType": "address",
          "name": "account",
          "type": "address"
        }
      ],
      "name": "OwnableUnauthorizedAccount",
      "type": "error"
    },
    {
      "anonymous": false,
      "inputs": [
        {
          "indexed": true,
          "internalType": "address",
          "name": "previousOwner",
          "type": "address"
        },
        {
          "indexed": true,
          "internalType": "address",
          "name": "newOwner",
          "type": "address"
        }
      ],
      "name": "OwnershipTransferred",
      "type": "event"
    },
    {
      "anonymous": false,
      "inputs": [
        {
          "indexed": true,
          "internalType": "address",
          "name": "fromToken",
          "type": "address"
        },
        {
          "indexed": true,
          "internalType": "address",
          "name": "toToken",
          "type": "address"
        },
        {
          "indexed": false,
          "internalType": "uint256",
          "name": "rate",
          "type": "uint256"
        }
      ],
      "name": "RateSet",
      "type": "event"
    },
    {
      "anonymous": false,
      "inputs": [
        {
          "indexed": true,
          "internalType": "address",
          "name": "user",
          "type": "address"
        },
        {
          "indexed": true,
          "internalType": "address",
          "name": "fromToken",
          "type": "address"
        },
        {
          "indexed": true,
          "internalType": "address",
          "name": "toToken",
          "type": "address"
        },
        {
          "indexed": false,
          "internalType": "uint256",
          "name": "fromAmount",
          "type": "uint256"
        },
        {
          "indexed": false,
          "internalType": "uint256",
          "name": "toAmount",
          "type": "uint256"
        }
      ],
      "name": "Swap",
      "type": "event"
    },
    {
      "anonymous": false,
      "inputs": [
        {
          "indexed": true,
          "internalType": "address",
          "name": "token",
          "type": "address"
        },
        {
          "indexed": false,
          "internalType": "uint256",
          "name": "amount",
          "type": "uint256"
        }
      ],
      "name": "TokensWithdrawn",
      "type": "event"
    },
    {
      "inputs": [
        {
          "internalType": "address",
          "name": "",
          "type": "address"
        },
        {
          "internalType": "address",
          "name": "",
          "type": "address"
        }
      ],
      "name": "exchangeRates",
      "outputs": [
        {
          "internalType": "uint256",
          "name": "",
          "type": "uint256"
        }
      ],
      "stateMutability": "view",
      "type": "function"
    },
    {
      "inputs": [
        {
          "internalType": "address",
          "name": "token",
          "type": "address"
        }
      ],
      "name": "getContractBalance",
      "outputs": [
        {
          "internalType": "uint256",
          "name": "",
          "type": "uint256"
        }
      ],
      "stateMutability": "view",
      "type": "function"
    },
    {
      "inputs": [
        {
          "internalType": "address",
          "name": "fromToken",
          "type": "address"
        },
        {
          "internalType": "address",
          "name": "toToken",
          "type": "address"
        }
      ],
      "name": "getExchangeRate",
      "outputs": [
        {
          "internalType": "uint256",
          "name": "",
          "type": "uint256"
        }
      ],
      "stateMutability": "view",
      "type": "function"
    },
    {
      "inputs": [],
      "name": "owner",
      "outputs": [
        {
          "internalType": "address",
          "name": "",
          "type": "address"
        }
      ],
      "stateMutability": "view",
      "type": "function"
    },
    {
      "inputs": [],
      "name": "renounceOwnership",
      "outputs": [],
      "stateMutability": "nonpayable",
      "type": "function"
    },
    {
      "inputs": [
        {
          "internalType": "address",
          "name": "fromToken",
          "type": "address"
        },
        {
          "internalType": "address",
          "name": "toToken",
          "type": "address"
        },
        {
          "internalType": "uint256",
          "name": "rate",
          "type": "uint256"
        }
      ],
      "name": "setExchangeRate",
      "outputs": [],
      "stateMutability": "nonpayable",
      "type": "function"
    },
    {
      "inputs": [
        {
          "internalType": "address",
          "name": "fromToken",
          "type": "address"
        },
        {
          "internalType": "address",
          "name": "toToken",
          "type": "address"
        },
        {
          "internalType": "uint256",
          "name": "amount",
          "type": "uint256"
        }
      ],
      "name": "swap",
      "outputs": [],
      "stateMutability": "nonpayable",
      "type": "function"
    },
    {
      "inputs": [
        {
          "internalType": "address",
          "name": "newOwner",
          "type": "address"
        }
      ],
      "name": "transferOwnership",
      "outputs": [],
      "stateMutability": "nonpayable",
      "type": "function"
    },
    {
      "inputs": [
        {
          "internalType": "address",
          "name": "token",
          "type": "address"
        },
        {
          "internalType": "uint256",
          "name": "amount",
          "type": "uint256"
        }
      ],
      "name": "withdrawTokens",
      "outputs": [],
      "stateMutability": "nonpayable",
      "type": "function"
    }
  ],
  "bytecode": "0x60806040523480156200001157600080fd5b5033600073ffffffffffffffffffffffffffffffffffffffff168173ffffffffffffffffffffffffffffffffffffffff1603620000885760006040517f1e4fbdf70000000000000000000000000000000000000000000000000000000081526004016200007f9190620001a9565b60405180910390fd5b6200009981620000a060201b60201c565b50620001c6565b60008060009054906101000a900473ffffffffffffffffffffffffffffffffffffffff169050816000806101000a81548173ffffffffffffffffffffffffffffffffffffffff021916908373ffffffffffffffffffffffffffffffffffffffff1602179055508173ffffffffffffffffffffffffffffffffffffffff168173ffffffffffffffffffffffffffffffffffffffff167f8be0079c531659141344cd1fd0a4f28419497f9722a3daafe3b4186f6b6457e060405160405180910390a35050565b600073ffffffffffffffffffffffffffffffffffffffff82169050919050565b6000620001918262000164565b9050919050565b620001a38162000184565b82525050565b6000602082019050620001c0600083018462000198565b92915050565b61136180620001d66000396000f3fe608060405234801561001057600080fd5b50600436106100935760003560e01c8063782aaeea11610066578063782aaeea1461011e5780638da5cb5b1461013a578063baaa61be14610158578063df791e5014610188578063f2fde38b146101a457610093565b806306b091f91461009857806343ab265f146100b4578063503fa44f146100e4578063715018a614610114575b600080fd5b6100b260048036038101906100ad9190610c65565b6101c0565b005b6100ce60048036038101906100c99190610ca5565b6103dd565b6040516100db9190610ce1565b60405180910390f35b6100fe60048036038101906100f99190610cfc565b610460565b60405161010b9190610ce1565b60405180910390f35b61011c610485565b005b61013860048036038101906101339190610d3c565b610499565b005b6101426105cf565b60405161014f9190610d9e565b60405180910390f35b610172600480360381019061016d9190610cfc565b6105f8565b60405161017f9190610ce1565b60405180910390f35b6101a2600480360381019061019d9190610d3c565b61067f565b005b6101be60048036038101906101b99190610ca5565b6109f3565b005b6101c8610a79565b6000811161020b576040517f08c379a000000000000000000000000000000000000000000000000000000000815260040161020290610e16565b60405180910390fd5b808273ffffffffffffffffffffffffffffffffffffffff166370a08231306040518263ffffffff1660e01b81526004016102459190610d9e565b602060405180830381865afa158015610262573d6000803e3d6000fd5b505050506040513d601f19601f820116820180604052508101906102869190610e4b565b10156102c7576040517f08c379a00000000000000000000000000000000000000000000000000000000081526004016102be90610ec4565b60405180910390fd5b8173ffffffffffffffffffffffffffffffffffffffff1663a9059cbb6102eb6105cf565b836040518363ffffffff1660e01b8152600401610309929190610ee4565b6020604051808303816000875af1158015610328573d6000803e3d6000fd5b505050506040513d601f19601f8201168201806040525081019061034c9190610f45565b61038b576040517f08c379a000000000000000000000000000000000000000000000000000000000815260040161038290610fbe565b60405180910390fd5b8173ffffffffffffffffffffffffffffffffffffffff167f6352c5382c4a4578e712449ca65e83cdb392d045dfcf1cad9615189db2da244b826040516103d19190610ce1565b60405180910390a25050565b60008173ffffffffffffffffffffffffffffffffffffffff166370a08231306040518263ffffffff1660e01b81526004016104189190610d9e565b602060405180830381865afa158015610435573d6000803e3d6000fd5b505050506040513d601f19601f820116820180604052508101906104599190610e4b565b9050919050565b6001602052816000526040600020602052806000526040600020600091509150505481565b61048d610a79565b6104976000610b00565b565b6104a1610a79565b600081116104e4576040517f08c379a00000000000000000000000000000000000000000000000000000000081526004016104db9061102a565b60405180910390fd5b80600160008573ffffffffffffffffffffffffffffffffffffffff1673ffffffffffffffffffffffffffffffffffffffff16815260200190815260200160002060008473ffffffffffffffffffffffffffffffffffffffff1673ffffffffffffffffffffffffffffffffffffffff168152602001908152602001600020819055508173ffffffffffffffffffffffffffffffffffffffff168373ffffffffffffffffffffffffffffffffffffffff167f8133797ea68fdaae246d50013e5651af0c57647463aa0e0a6c9ed0ca79039067836040516105c29190610ce1565b60405180910390a3505050565b60008060009054906101000a900473ffffffffffffffffffffffffffffffffffffffff16905090565b6000600160008473ffffffffffffffffffffffffffffffffffffffff1673ffffffffffffffffffffffffffffffffffffffff16815260200190815260200160002060008373ffffffffffffffffffffffffffffffffffffffff1673ffffffffffffffffffffffffffffffffffffffff16815260200190815260200160002054905092915050565b600081116106c2576040517f08c379a00000000000000000000000000000000000000000000000000000000081526004016106b990610e16565b60405180910390fd5b60006106ce84846105f8565b905060008111610713576040517f08c379a000000000000000000000000000000000000000000000000000000000815260040161070a90611096565b60405180910390fd5b6000670de0b6b3a7640000828461072a91906110e5565b6107349190611156565b9050808473ffffffffffffffffffffffffffffffffffffffff166370a08231306040518263ffffffff1660e01b81526004016107709190610d9e565b602060405180830381865afa15801561078d573d6000803e3d6000fd5b505050506040513d601f19601f820116820180604052508101906107b19190610e4b565b10156107f2576040517f08c379a00000000000000000000000000000000000000000000000000000000081526004016107e9906111d3565b60405180910390fd5b8473ffffffffffffffffffffffffffffffffffffffff166323b872dd3330866040518463ffffffff1660e01b815260040161082f939291906111f3565b6020604051808303816000875af115801561084e573d6000803e3d6000fd5b505050506040513d601f19601f820116820180604052508101906108729190610f45565b6108b1576040517f08c379a00000000000000000000000000000000000000000000000000000000081526004016108a890611276565b60405180910390fd5b8373ffffffffffffffffffffffffffffffffffffffff1663a9059cbb33836040518363ffffffff1660e01b81526004016108ec929190610ee4565b6020604051808303816000875af115801561090b573d6000803e3d6000fd5b505050506040513d601f19601f8201168201806040525081019061092f9190610f45565b61096e576040517f08c379a0000000000000000000000000000000000000000000000000000000008152600401610965906112e2565b60405180910390fd5b8373ffffffffffffffffffffffffffffffffffffffff168573ffffffffffffffffffffffffffffffffffffffff163373ffffffffffffffffffffffffffffffffffffffff167fcd3829a3813dc3cdd188fd3d01dcf3268c16be2fdd2dd21d0665418816e4606286856040516109e4929190611302565b60405180910390a45050505050565b6109fb610a79565b600073ffffffffffffffffffffffffffffffffffffffff168173ffffffffffffffffffffffffffffffffffffffff1603610a6d5760006040517f1e4fbdf7000000000000000000000000000000000000000000000000000000008152600401610a649190610d9e565b60405180910390fd5b610a7681610b00565b50565b610a81610bc4565b73ffffffffffffffffffffffffffffffffffffffff16610a9f6105cf565b73ffffffffffffffffffffffffffffffffffffffff1614610afe57610ac2610bc4565b6040517f118cdaa7000000000000000000000000000000000000000000000000000000008152600401610af59190610d9e565b60405180910390fd5b565b60008060009054906101000a900473ffffffffffffffffffffffffffffffffffffffff169050816000806101000a81548173ffffffffffffffffffffffffffffffffffffffff021916908373ffffffffffffffffffffffffffffffffffffffff1602179055508173ffffffffffffffffffffffffffffffffffffffff168173ffffffffffffffffffffffffffffffffffffffff167f8be0079c531659141344cd1fd0a4f28419497f9722a3daafe3b4186f6b6457e060405160405180910390a35050565b600033905090565b600080fd5b600073ffffffffffffffffffffffffffffffffffffffff82169050919050565b6000610bfc82610bd1565b9050919050565b610c0c81610bf1565b8114610c1757600080fd5b50565b600081359050610c2981610c03565b92915050565b6000819050919050565b610c4281610c2f565b8114610c4d57600080fd5b50565b600081359050610c5f81610c39565b92915050565b60008060408385031215610c7c57610c7b610bcc565b5b6000610c8a85828601610c1a565b9250506020610c9b85828601610c50565b9150509250929050565b600060208284031215610cbb57610cba610bcc565b5b6000610cc984828501610c1a565b91505092915050565b610cdb81610c2f565b82525050565b6000602082019050610cf66000830184610cd2565b92915050565b60008060408385031215610d1357610d12610bcc565b5b6000610d2185828601610c1a565b9250506020610d3285828601610c1a565b9150509250929050565b600080600060608486031215610d5557610d54610bcc565b5b6000610d6386828701610c1a565b9350506020610d7486828701610c1a565b9250506040610d8586828701610c50565b9150509250925092565b610d9881610bf1565b82525050565b6000602082019050610db36000830184610d8f565b92915050565b600082825260208201905092915050565b7f416d6f756e74206d75737420626520706f736974697665000000000000000000600082015250565b6000610e00601783610db9565b9150610e0b82610dca565b602082019050919050565b60006020820190508181036000830152610e2f81610df3565b9050919050565b600081519050610e4581610c39565b92915050565b600060208284031215610e6157610e60610bcc565b5b6000610e6f84828501610e36565b91505092915050565b7f496e73756666696369656e742062616c616e6365000000000000000000000000600082015250565b6000610eae601483610db9565b9150610eb982610e78565b602082019050919050565b60006020820190508181036000830152610edd81610ea1565b9050919050565b6000604082019050610ef96000830185610d8f565b610f066020830184610cd2565b9392505050565b60008115159050919050565b610f2281610f0d565b8114610f2d57600080fd5b50565b600081519050610f3f81610f19565b92915050565b600060208284031215610f5b57610f5a610bcc565b5b6000610f6984828501610f30565b91505092915050565b7f5472616e73666572206661696c65640000000000000000000000000000000000600082015250565b6000610fa8600f83610db9565b9150610fb382610f72565b602082019050919050565b60006020820190508181036000830152610fd781610f9b565b9050919050565b7f52617465206d75737420626520706f7369746976650000000000000000000000600082015250565b6000611014601583610db9565b915061101f82610fde565b602082019050919050565b6000602082019050818103600083015261104381611007565b9050919050565b7f45786368616e67652072617465206e6f74207365740000000000000000000000600082015250565b6000611080601583610db9565b915061108b8261104a565b602082019050919050565b600060208201905081810360008301526110af81611073565b9050919050565b7f4e487b7100000000000000000000000000000000000000000000000000000000600052601160045260246000fd5b60006110f082610c2f565b91506110fb83610c2f565b925082820261110981610c2f565b915082820484148315176111205761111f6110b6565b5b5092915050565b7f4e487b7100000000000000000000000000000000000000000000000000000000600052601260045260246000fd5b600061116182610c2f565b915061116c83610c2f565b92508261117c5761117b611127565b5b828204905092915050565b7f496e73756666696369656e7420636f6e74726163742062616c616e6365000000600082015250565b60006111bd601d83610db9565b91506111c882611187565b602082019050919050565b600060208201905081810360008301526111ec816111b0565b9050919050565b60006060820190506112086000830186610d8f565b6112156020830185610d8f565b6112226040830184610cd2565b949350505050565b7f5472616e736665722066726f6d206661696c6564000000000000000000000000600082015250565b6000611260601483610db9565b915061126b8261122a565b602082019050919050565b6000602082019050818103600083015261128f81611253565b9050919050565b7f5472616e7366657220746f206661696c65640000000000000000000000000000600082015250565b60006112cc601283610db9565b91506112d782611296565b602082019050919050565b600060208201905081810360008301526112fb816112bf565b9050919050565b60006040820190506113176000830185610cd2565b6113246020830184610cd2565b939250505056fea2646970667358221220e9f15e91ec9c21a1afcb8e547b80aec84d1421fb80b9a914f060dabe4c356e0064736f6c63430008140033",
  "linkReferences": {},
  "deployedLinkReferences": {}
}